:020000040800F2
:10000000980600202902000865020008670200081F
:10001000690200086B0200086D0200080000000081
:100020000000000000000000000000006F02000857
:100030007102000800000000730200087502000849
:1000400077020008770200087702000877020008AC
:10005000770200087702000877020008770200089C
:10006000770200087702000877020008770200088C
:10007000770200087702000877020008770200087C
:10008000770200087702000877020008770200086C
:10009000770200087702000877020008770200085C
:1000A000770200087702000877020008770200084C
:1000B000770200087702000877020008770200083C
:1000C000770200087702000877020008770200082C
:1000D000770200087702000877020008770200081C
:1000E000770200087702000877020008770200080C
:1000F00077020008770200087702000877020008FC
:1001000077020008770200087702000877020008EB
:1001100077020008770200087702000877020008DB
:1001200077020008770200087702000877020008CB
:1001300077020008770200087702000877020008BB
:1001400077020008770200087702000877020008AB
:10015000770200087702000877020008770200089B
:10016000770200087702000877020008770200088B
:1001700077020008770200087702000800000000FC
:10018000770200087702000800F002F800F03CF85F
:100190000AA090E8000C82448344AAF10107DA45E2
:1001A00001D100F031F8AFF2090EBAE80F0013F0F8
:1001B000010F18BFFB1A43F0010318478007000026
:1001C000A0070000103A24BF78C878C1FAD85207B7
:1001D00024BF30C830C144BF04680C6070470000C1
:1001E0000023002400250026103A28BF78C1FBD840
:1001F000520728BF30C148BF0B6070471FB500F0E1
:1002000097FB1FBD10B510BD00F053F81146FFF766
:10021000F5FF00F051FA00F071F803B4FFF7F2FFB8
:1002200003BC00F079F8000016481749174B9942B3
:100230003CBF50F8042B41F8042BF8D314494FF07D
:1002400000028B4238BF43F8042BFAD3DFF8440096
:10025000016841F470010160BFF34F8FBFF36F8FEE
:100260000D480047FEE7FEE7FEE7FEE7FEE7FEE794
:10027000FEE7FEE7FEE7FEE708480949094A0A4BA0
:10028000704700005C0900080000002034000020D6
:100290009806002088ED00E0890100089800002001
:1002A00098060020980200209802002070477047AE
:1002B0007047754600F02CF8AE4605006946534677
:1002C00020F00700854618B020B5FFF7D5FFBDE840
:1002D00020404FF000064FF000074FF000084FF0AD
:1002E000000B21F00701AC46ACE8C009ACE8C0093E
:1002F000ACE8C009ACE8C0098D46704710B50446AB
:10030000AFF300802046BDE81040FFF786BF000035
:10031000004870473400002001491820ABBEFEE7BA
:1003200026000200704700005E49096821F00701BD
:100330005C4A11601146096841F0020111605A4996
:10034000096841F48071584A116000BF5649096834
:1003500001F480610029F9D010205349496821F047
:10036000F851514A51601146496841EA00615160B3
:100370001146096821F08071116000BF4A4909687F
:1003800001F00071B1F1007FF8D04749C96821F050
:100390000301454AD1601146C96841F00201D160AC
:1003A0001146C96821F4FE4141F4A051D1601146C3
:1003B000C96821F0700141F01001D1601146C9688F
:1003C00021F0C061D1601146C96841F08071D160EF
:1003D0001146096841F08071116000BF3249096817
:1003E00001F000710029F9D02F49896821F003013B
:1003F0002D4A91601146896841F00301916000BF68
:100400002949896801F00C010C29F9D1264989682C
:1004100021F0F001244A91601146896821F4E061DD
:1004200091601146896821F4605191601146096814
:1004300021F08061116000BF1B49096801F08061F3
:10044000B1F1806FF8D01849096921F4FE41164ACC
:1004500011611146096941F4C051116111460969E0
:1004600041F4003111611146096941F48031116193
:100470001146096841F08061116000BF0A490968AE
:1004800001F080610029F9D007498831096821F419
:100490004001054AC2F888101146096E41F4001166
:1004A0001166704700200240001002401A48C06CDC
:1004B00040F008001849C8641848006820F47050DB
:1004C000164908600846006840F420500860134848
:1004D0002030006840F0EE601049203108600F487D
:1004E0000830006840F470500C4908310860081D5D
:1004F000006820F47050091D08600846006840F448
:10050000A05008600548001D006820F06000034905
:10051000091D08607047000000100240000C0048F0
:1005200000B50D48806D40F400300B4988650A48DD
:100530008830006820F00C00C1F888000846D0F828
:10054000880040F00400C1F88800FFF7AFFF0348BF
:1005500000F010F800BD0000001002400044004010
:10056000642242430723B2FBF3F100BF4A1E111E6F
:10057000FCD17047016821F001010160016821F0A0
:1005800010210160016821F400410160416821F4FB
:100590004051416042F28D01C160016841F00C019F
:1005A00001601E4988421BD1016841F020010160B1
:1005B000016821F040010160016821F01001016033
:1005C000016821F080010160016821F480710160FF
:1005D000016821F040010160016821F00101016022
:1005E0000F49884209D1016A41F0400101620D4979
:1005F000096841F0C0010B4A1160016841F0010136
:10060000016000BFC16901F400110029FAD000BFE8
:10061000C16901F480010029FAD07047004C004004
:100620000044004008380140014600BFC86900F09E
:1006300020000028FAD0888CC0B270470146C869F3
:1006400000F020007047F0B504460E46174600251E
:100650000CE000BFE06900F080000028FAD0705D77
:1006600020854FF49670FFF77BFF6D1CBD42F0D3E1
:1006700000BFE06900F040000028FAD0E06920F0F7
:100680004000E061F0BD18B504462046FFF7CCFFFE
:100690000090012269462046FFF7D5FF9DF8000033
:1006A00018BD00B5014600F077F802468A4200D234
:1006B000C832501A00BD0000FFF736FEFFF730FFCA
:1006C00000F070F800F012F93AE01E48FFF7B6FFAC
:1006D000D0B11D48007802280BDA1A48FFF7D3FF83
:1006E00019490A780978491C174B19701749885419
:1006F0000AE01448FFF7C7FF0D2805D1114800F0A4
:100700002DF80020104908701149124A127851F84A
:10071000220000F035F80F490A780978491C0D4B82
:1007200019700D4951F8220000F030F8094800789E
:10073000052802DD002007490870642000F0EBF86E
:10074000C3E7000000440040020000200000002039
:1007500004000020030000201C00002018B50446FF
:100760000D200090012269462046FFF76CFF0A2009
:100770000090012269462046FFF765FF18BD000082
:1007800001490860704700003408004001490860D2
:1007900070470000380800400148006870470000BA
:1007A000240800404E48C06C40F002004C49C86428
:1007B0004C48006820F440504A49086008460068E8
:1007C00040F4005008600846006820F4404008608B
:1007D0000846006840F40040086042482030006845
:1007E00020F070603F49203108600846006840F002
:1007F000007008600846006820F0704008600846F5
:10080000006840F0005008603548806D40F00400FA
:10081000334988654FF4FA50334908603248143838
:10082000006840F001003049143908602E4808384B
:10083000006820F001002C4908390860084600686B
:1008400020F01000086028481038006840F0600070
:100850002549103908600846006820F0100008603B
:100860000846006840F4C04008600846006820F46C
:10087000805008600846006840F00800086008469C
:10088000006840F40060086017482838006840F0AD
:10089000800015492839086013480838006840F07E
:1008A00001001149083908600846006840F010004E
:1008B00008600846006820F00200086008460068EA
:1008C00020F020000860C7200749091D086006487D
:1008D0001438006840F0010003491439086070477B
:1008E0000010024000040048280800400348006847
:1008F00040F0010001490860704700000008004016
:1009000010B5FFF749FF044600BF2046FFF7C9FEB8
:100910006428FAD310BD70B50446002502E0FFF745
:10092000EFFF6D1C0A20B4FBF0F0A842F7D870BDB1
:100930004FF04070E1EE100A704700005C090008BB
:100940000000002034000000C401000890090008E5
:100950003400002064060000E001000800000000F0
:1009600005000000060000000A0000000D00000065
:100970001100000015000000050000000600000046
:100980000A0000000D00000011000000150000002A
:040000050800018965
:00000001FF
