:020000040800F2
:10000000C8060020290200086502000867020008EF
:10001000690200086B0200086D0200080000000081
:100020000000000000000000000000006F02000857
:100030007102000800000000730200087502000849
:1000400077020008770200087702000877020008AC
:10005000770200087702000877020008770200089C
:10006000770200087702000877020008770200088C
:10007000770200087702000877020008770200087C
:10008000770200087702000877020008770200086C
:10009000770200087702000877020008770200085C
:1000A000770200087702000877020008770200084C
:1000B000770200087702000877020008770200083C
:1000C000770200087702000877020008770200082C
:1000D000770200087702000877020008770200081C
:1000E000770200087702000877020008770200080C
:1000F00077020008770200087702000877020008FC
:1001000077020008770200087702000877020008EB
:1001100077020008770200087702000877020008DB
:1001200077020008770200087702000877020008CB
:1001300077020008770200087702000877020008BB
:1001400077020008770200087702000877020008AB
:10015000770200087702000877020008770200089B
:10016000770200087702000877020008770200088B
:1001700077020008770200087702000800000000FC
:10018000770200087702000800F002F800F03CF85F
:100190000AA090E8000C82448344AAF10107DA45E2
:1001A00001D100F031F8AFF2090EBAE80F0013F0F8
:1001B000010F18BFFB1A43F001031847200A000083
:1001C000400A0000103A24BF78C878C1FAD8520714
:1001D00024BF30C830C144BF04680C6070470000C1
:1001E0000023002400250026103A28BF78C1FBD840
:1001F000520728BF30C148BF0B6070471FB500F0E1
:10020000E7FC1FBD10B510BD00F072F81146FFF7F6
:10021000F5FF00F06FFA00F090F803B4FFF7F2FF7B
:1002200003BC00F097F8000016481749174B994295
:100230003CBF50F8042B41F8042BF8D314494FF07D
:1002400000028B4238BF43F8042BFAD3DFF8440096
:10025000016841F470010160BFF34F8FBFF36F8FEE
:100260000D480047FEE7FEE7FEE7FEE7FEE7FEE794
:10027000FEE7FEE7FEE7FEE708480949094A0A4BA0
:1002800070470000FC0B0008000000206800002000
:10029000C806002088ED00E089010008C8000020A1
:1002A000C8060020C8020020C802002010B5431C68
:1002B00002E010F8011B71B18107FAD14FF0013251
:1002C00002C88C1A8C4314EAC211F9D0C01A0A066B
:1002D00003D0C01E10BDC01A10BD0A0401D0801E7C
:1002E00010BD0902FCD0401E10BD7047704770471A
:1002F000754600F02BF8AE4605006946534620F0DF
:100300000700854618B020B5FFF7B6FFBDE82040CE
:100310004FF000064FF000074FF000084FF0000BC1
:1003200021F00701AC46ACE8C009ACE8C009ACE874
:10033000C009ACE8C0098D46704710B50446AFF35C
:1003400000802046BDE81040FFF767BF00487047B7
:100350006800002001491820ABBEFEE7260002001D
:10036000704700005E49096821F007015C4A11608E
:100370001146096841F0020111605A49096841F4C7
:100380008071584A116000BF5649096801F48061C4
:100390000029F9D010205349496821F0F851514AF9
:1003A00051601146496841EA00615160114609688F
:1003B00021F08071116000BF4A49096801F00071A5
:1003C000B1F1007FF8D04749C96821F00301454ADF
:1003D000D1601146C96841F00201D1601146C96877
:1003E00021F4FE4141F4A051D1601146C96821F0C9
:1003F000700141F01001D1601146C96821F0C0615F
:10040000D1601146C96841F08071D1601146096818
:1004100041F08071116000BF3249096801F000713C
:100420000029F9D02F49896821F003012D4A9160F4
:100430001146896841F00301916000BF294989682C
:1004400001F00C010C29F9D12649896821F0F0014D
:10045000244A91601146896821F4E0619160114657
:10046000896821F4605191601146096821F080612A
:10047000116000BF1B49096801F08061B1F1806F14
:10048000F8D01849096921F4FE41164A1161114654
:10049000096941F4C05111611146096941F4003103
:1004A00011611146096941F48031116111460968F1
:1004B00041F08061116000BF0A49096801F0806164
:1004C0000029F9D007498831096821F44001054A1B
:1004D000C2F888101146096E41F400111166704788
:1004E00000200240001002401A48C06C40F0080092
:1004F0001849C8641848006820F47050164908600C
:100500000846006840F42050086013482030006816
:1005100040F0EE601049203108600F480830006854
:1005200040F470500C4908310860081D006820F440
:100530007050091D08600846006840F4A05008602B
:100540000548001D006820F060000349091D08608F
:100550007047000000100240000C004800B50D4834
:10056000806D40F400300B4988650A488830006887
:1005700020F00C00C1F888000846D0F8880040F050
:100580000400C1F88800FFF7AFFF034800F010F83F
:1005900000BD0000001002400044004064224243BD
:1005A0000723B2FBF3F100BF4A1E111EFCD17047B6
:1005B000016821F001010160016821F01021016052
:1005C000016821F400410160416821F4405141601B
:1005D00042F28D01C160016841F00C0101601E49C9
:1005E00088421BD1016841F020010160016821F0BF
:1005F00040010160016821F010010160016821F0F3
:1006000080010160016821F480710160016821F0BE
:1006100040010160016821F0010101600F49884239
:1006200009D1016A41F0400101620D49096841F0B8
:10063000C0010B4A1160016841F00101016000BF77
:10064000C16901F400110029FAD000BFC16901F4A9
:1006500080010029FAD07047004C0040004400405F
:1006600008380140014600BFC86900F0200000289A
:10067000FAD0888CC0B270470146C86900F02000EB
:100680007047F0B504460E46174600250CE000BF43
:10069000E06900F080000028FAD0705D20854FF4FA
:1006A0009670FFF77BFF6D1CBD42F0D300BFE06981
:1006B00000F040000028FAD0E06920F04000E0613E
:1006C000F0BD18B504462046FFF7CCFF009001228C
:1006D00069462046FFF7D5FF9DF8000018BD00B51C
:1006E000014600F0A9F902468A4200D2C832501AE7
:1006F00000BD0000FFF736FEFFF730FF00F0A2F963
:1007000000F044FA53E02A48FFF7B6FF002849D02A
:100710002848007802280BDA2548FFF7D2FF254940
:100720000A780978491C234B19702349885439E009
:100730001F48FFF7C6FF0D2834D11D4800F03EF8D2
:1007400000201C4908701C480078432803D01A4830
:100750000078632803D1032000F042F822E0164815
:100760000078502803D014480078702803D1022064
:1007700000F036F816E0104800784C2803D00E48F8
:1007800000786C2803D1002000F02AF80AE00A481B
:100790000078522803D008480078722802D101203E
:1007A00000F01EF800F074F8642000F004FAAAE7E4
:1007B00000440040020000200000002018B504465C
:1007C0000D200090012269462046FFF75AFF0A20BB
:1007D0000090012269462046FFF753FF18BD000034
:1007E00010B50446022C02D101201D490870032CCB
:1007F00002D100201A4908701948007801282DD12B
:100800001848007830B1012825D0022822D00328CA
:1008100023D121E06CB914480068062809DA12488F
:100820000068401C1049086008460178022000F06A
:10083000F3F8012C0DD10C480068002809DD0A48A6
:100840000068401E0849086008460178022000F050
:10085000E3F802E001E000E000BF00BF10BD0000CF
:1008600062000020640000204C00002070B50646A5
:100870000C462046FFF71AFD05462A462146034846
:10088000FFF7FFFE0148FFF799FF70BD00440040ED
:1008900070B54B48007800B170BD4A484A490968B4
:1008A000455C05F0E00605F01F04402E26D004DC70
:1008B000002E7AD0202E20D104E0802E3ED0A02E13
:1008C0007BD153E041A14348FFF7D0FF052C03DD66
:1008D00002203B49087010E03F480078022804D00D
:1008E0002146022000F098F807E000203A490870FD
:1008F00035480068401C344908605EE037A135483F
:10090000FFF7B4FF37480078012805DD3548007847
:10091000401E3449087010E03248007801280AD19E
:1009200030480078401E2F49087027480068401C56
:100930002549086001E02B4804703EE02AA12548C3
:10094000FFF794FF2A48007818B103201C4908706B
:1009500006E01D480078401C2549087025480470B1
:1009600019480068401C1849086026E022A119486F
:10097000FFF77CFF1F480078002808DD1D4800783D
:10098000401E1C4908701A4800780F490860194831
:100990000078002807DC0020154908700A48006824
:1009A000401C0949086008E0FFE716A10948FFF765
:1009B0005DFF03200849087000BF00BF00BF6BE760
:1009C0006200002004000020540000204D6F766972
:1009D0006E670000004400406400002057616974A5
:1009E000696E67005C0000204C6F6F70696E0000DC
:1009F0005E0000205F000020456E64206C6F6F7009
:100A0000696E0000456E64696E6700000149086008
:100A1000704700003408004070B504460D46044895
:100A20000470044951F82500FFF7F0FF70BD000085
:100A3000640000201C00002001480068704700008E
:100A4000240800404E48C06C40F002004C49C86485
:100A50004C48006820F440504A4908600846006845
:100A600040F4005008600846006820F440400860E8
:100A70000846006840F400400860424820300068A2
:100A800020F070603F49203108600846006840F05F
:100A9000007008600846006820F070400860084652
:100AA000006840F0005008603548806D40F0040058
:100AB000334988654FF4FA50334908603248143896
:100AC000006840F001003049143908602E480838A9
:100AD000006820F001002C490839086008460068C9
:100AE00020F01000086028481038006840F06000CE
:100AF0002549103908600846006820F01000086099
:100B00000846006840F4C04008600846006820F4C9
:100B1000805008600846006840F0080008600846F9
:100B2000006840F40060086017482838006840F00A
:100B3000800015492839086013480838006840F0DB
:100B400001001149083908600846006840F01000AB
:100B500008600846006820F0020008600846006847
:100B600020F020000860C7200749091D08600648DA
:100B70001438006840F001000349143908607047D8
:100B800000100240000400482808004003480068A4
:100B900040F0010001490860704700000008004073
:100BA00010B5FFF749FF044600BF2046FFF797FD49
:100BB0006428FAD310BD70B50446002502E0FFF7A3
:100BC000EFFF6D1C0A20B4FBF0F0A842F7D870BD0F
:100BD0004FF04070E1EE100A70470000FC0B000877
:100BE0000000002068000000C4010008640C000838
:100BF0006800002060060000E0010008000000001E
:100C000083232544A0244321002522000400002042
:100C10000D0000200000000005000000060000009C
:100C20000A0000000D000000110000001500000087
:100C300005000000060000000A0000000D00000092
:100C4000110000001500000000000000000000007E
:100C50000000000000000000000000000000000094
:040C6000010000008F
:040000050800018965
:00000001FF
