:020000040800F2
:10000000B0060020450200088102000883020008B3
:10001000850200088702000889020008000000002D
:100020000000000000000000000000008B0200083B
:100030008D020008000000008F02000891020008F5
:10004000930200089302000893020008930200083C
:10005000930200089302000893020008930200082C
:10006000930200089302000893020008930200081C
:10007000930200089302000893020008930200080C
:1000800093020008930200089302000893020008FC
:1000900093020008930200089302000893020008EC
:1000A00093020008930200089302000893020008DC
:1000B00093020008930200089302000893020008CC
:1000C00093020008930200089302000893020008BC
:1000D00093020008930200089302000893020008AC
:1000E000930200089302000893020008930200089C
:1000F000930200089302000893020008930200088C
:10010000930200089302000893020008930200087B
:10011000930200089302000893020008930200086B
:10012000930200089302000893020008930200085B
:10013000930200089302000893020008930200084B
:10014000930200089302000893020008930200083B
:10015000930200089302000893020008930200082B
:10016000930200089302000893020008930200081B
:1001700093020008930200089302000800000000A8
:10018000930200089302000800F002F800F04AF819
:100190000AA090E8000C82448344AAF10107DA45E2
:1001A00001D100F03FF8AFF2090EBAE80F0013F0EA
:1001B000010F18BFFB1A43F001031847AC0E0000F3
:1001C000CC0E0000103A24BF78C878C1FAD8520784
:1001D00024BF30C830C144BF04680C6070470000C1
:1001E0000023002400250026103A28BF78C1FBD840
:1001F000520728BF30C148BF0B607047642900F028
:10020000AB80002070471FB500F028FF00F06EFAA9
:1002100004000020002100F00BFF401C60601FBDA7
:1002200010B510BD00F03CFA1146FFF7ECFF00F0EE
:10023000D7FC00F06DFA03B4FFF7F2FF03BC00F047
:10024000B1FA000016481749174B99423CBF50F8C5
:10025000042B41F8042BF8D314494FF000028B42D1
:1002600038BF43F8042BFAD3DFF84400016841F4A7
:1002700070010160BFF34F8FBFF36F8F0D480047D0
:10028000FEE7FEE7FEE7FEE7FEE7FEE7FEE7FEE746
:10029000FEE7FEE708480949094A0A4B7047000093
:1002A00098110008000000200C000020B00600207B
:1002B00088ED00E089010008B0000020B0060020B1
:1002C000B0020020B00200200FB41CB5074B06AAF4
:1002D0007B4469460090059800F033F90020694698
:1002E00000F042F91CBC5DF814FB00009502000010
:1002F0002DE9F0410E460446002020622046E168C8
:10030000884730B3252805D0D4E901219047206AD9
:10031000401CF2E7E168204600278847050018D016
:10032000A5F14100192802D820354FF40067324664
:10033000294620462760FFF761FF40B1012804D01D
:10034000F61D26F007060836D8E7361DD6E72846FC
:10035000DAE7206ABDE8F0812DE9F0410646002485
:1003600010687529314616A510D0AFF3008000281B
:1003700002DA404213A507E031688A0701D512A5C9
:1003800002E0490704D511A5012401E0AFF3008084
:1003900000210A2206F1240709E0B0FBF2FCB0FBC1
:1003A000F2F302FB1C00303078541846491C002838
:1003B000F3D123462A463046BDE8F04100F062B84A
:1003C000000000002D0000002B00000020000000B5
:1003D00070B5064600F052F80468054630460A2219
:1003E000002100F0C6F82C6070BD10B5431C02E07F
:1003F00010F8011B71B18107FAD14FF0013202C828
:100400008C1A8C4314EAC211F9D0C01A0A0603D020
:10041000C01E10BDC01A10BD0A0401D0801E10BD40
:100420000902FCD0401E10BD4FF0000200B513467B
:1004300094469646203922BFA0E80C50A0E80C5004
:10044000B1F12001BFF4F7AF090728BFA0E80C50B5
:1004500048BF0CC05DF804EB890028BF40F8042BAE
:1004600008BF704748BF20F8022B11F0804F18BF1B
:1004700000F8012B7047704770477047004870477D
:100480004C0000202DE9F0470D469946924604465F
:1004900000F124080168880604D5E06921F0100104
:1004A000216000E00120A84201DD471B00E0002799
:1004B000A1697A1902EB0900081AA0612078C00628
:1004C00002D42046AFF30080002608E0D4E90121E1
:1004D0001AF806009047206A401C761C20624E45A0
:1004E000F4DB2078C0060AD52046AFF3008006E092
:1004F000D4E9012130209047206A401C2062381E38
:10050000A7F10107F4DC07E0D4E9012118F80500A0
:100510009047206A401C2062281EA5F10105F3DCEB
:100520002046AFF300802078000602D50220BDE807
:10053000F0870120FBE7000001694A1C026108788E
:10054000704700B58FB0CDE9013100210591054913
:100550007944CDE9031011466846FFF7C9FE0FB094
:1005600000BD0000E5FFFFFF0A6802F8010B0A600A
:1005700070472DE9F04791460F4680460446002615
:1005800014F8015B2DB100F031F80068405DC00740
:10059000F6D12B2D02D02D2D18D0641E4A46394697
:1005A000204600F02BF827B13968A14201D1C7F8E5
:1005B00000804FF0020471050BD54042002803DD96
:1005C000FFF75CFF0460A007BDE8F08746F4806693
:1005D000E4E70028F8DAFFF751FF04606FF000400D
:1005E000F2E70000004870474C00002010B500F012
:1005F0007DF8001D10BD00BF390A00002DE9F05F35
:10060000824615468B4600270AF10104B946007858
:10061000302801D09DB113E014F8010B0127782890
:1006200003D0582801D045B10AE00DB1102D07D1F3
:10063000002714F8010B102502E0082500E00A2528
:100640000026B0460EE005FB080005FB06F1012779
:100650001FFA80F801EB1046B6F5803F00D3B9468B
:1006600014F8010B294600F045F80028EBDABBF13D
:10067000000F05D00FB1641E00E05446CBF80040D7
:10068000B9F1000F06D0FFF7F9FE02210160C81E84
:1006900000F003B848EA0640FAE730BCBDE8C09F66
:1006A0007546FFF79FFFAE4605006946534620F0AA
:1006B0000700854618B020B5FFF7ECFDBDE82040E7
:1006C0004FF000064FF000074FF000084FF0000B0E
:1006D00021F00701AC46ACE8C009ACE8C009ACE8C1
:1006E000C009ACE8C0098D4670470000004870475B
:1006F0006C0000203A2800D2303820F02002412A35
:1007000001D3A2F13700884201D34FF0FF30704788
:1007100010B50446AFF300802046BDE81040FFF757
:100720008ABD00004FF0013C50F8042B51F8043B07
:100730009A4221D1A2EB0C03934313EACC1317D1B5
:1007400050F8042B51F8043B9A4215D1A2EB0C034C
:10075000934313EACC130BD150F8042B51F8043B0C
:100760009A4209D1A2EB0C03934313EACC13DBD0DA
:100770004FF00000704700BFD01A01BAB1FA81F102
:1007800001F0180122FA01F0CB40C1F12001DBB2E7
:10079000C0B2C01A2CFA01F3D11A914311EAC31165
:1007A000E6D1704701491820ABBEFEE726000200E3
:1007B000704700005E49096821F007015C4A11603A
:1007C0001146096841F0020111605A49096841F473
:1007D0008071584A116000BF5649096801F4806170
:1007E0000029F9D010205349496821F0F851514AA5
:1007F00051601146496841EA00615160114609683B
:1008000021F08071116000BF4A49096801F0007150
:10081000B1F1007FF8D04749C96821F00301454A8A
:10082000D1601146C96841F00201D1601146C96822
:1008300021F4FE4141F4A051D1601146C96821F074
:10084000700141F01001D1601146C96821F0C0610A
:10085000D1601146C96841F08071D16011460968C4
:1008600041F08071116000BF3249096801F00071E8
:100870000029F9D02F49896821F003012D4A9160A0
:100880001146896841F00301916000BF29498968D8
:1008900001F00C010C29F9D12649896821F0F001F9
:1008A000244A91601146896821F4E0619160114603
:1008B000896821F4605191601146096821F08061D6
:1008C000116000BF1B49096801F08061B1F1806FC0
:1008D000F8D01849096921F4FE41164A1161114600
:1008E000096941F4C05111611146096941F40031AF
:1008F00011611146096941F480311161114609689D
:1009000041F08061116000BF0A49096801F080610F
:100910000029F9D007498831096821F44001054AC6
:10092000C2F888101146096E41F400111166704733
:1009300000200240001002401A48C06C40F008003D
:100940001849C8641848006820F4705016490860B7
:100950000846006840F420500860134820300068C2
:1009600040F0EE601049203108600F480830006800
:1009700040F470500C4908310860081D006820F4EC
:100980007050091D08600846006840F4A0500860D7
:100990000548001D006820F060000349091D08603B
:1009A0007047000000100240000C004800B50D48E0
:1009B000806D40F400300B4988650A488830006833
:1009C00020F00C00C1F888000846D0F8880040F0FC
:1009D0000400C1F88800FFF7AFFF034800F010F8EB
:1009E00000BD000000100240004400406422424369
:1009F0000723B2FBF3F100BF4A1E111EFCD1704762
:100A0000016821F001010160016821F010210160FD
:100A1000016821F400410160416821F440514160C6
:100A200042F28D01C160016841F00C0101601E4974
:100A300088421BD1016841F020010160016821F06A
:100A400040010160016821F010010160016821F09E
:100A500080010160016821F480710160016821F06A
:100A600040010160016821F0010101600F498842E5
:100A700009D1016A41F0400101620D49096841F064
:100A8000C0010B4A1160016841F00101016000BF23
:100A9000C16901F400110029FAD000BFC16901F455
:100AA00080010029FAD07047004C0040004400400B
:100AB00008380140014600BFC86900F02000002846
:100AC000FAD0888CC0B27047F0B504460E4617467F
:100AD00000250CE000BFE06900F080000028FAD09B
:100AE000705D20854FF49670FFF780FF6D1CBD424E
:100AF000F0D300BFE06900F040000028FAD0E069C0
:100B000020F04000E061F0BD08B50648FFF7D2FFD5
:100B10000090012269460348FFF7D6FF9DF80000C8
:100B200008BD00000044004008B5002019490860D5
:100B30001FE01948FFF7BEFF00909DF800000D2848
:100B400017D09DF80000302813DB9DF800003928ED
:100B50000FDC012269461048FFF7B6FF9DF8000040
:100B60000E490C4A126888540A480068401C09491A
:100B700008609DF800000D2803D0064800681E2874
:100B8000D7DB00210548034A12688154FFF720FC97
:100B900008BD000008000020004400400C000020B8
:100BA0000E48C06C40F001000C49C8644FF0904002
:100BB000006820F00C004FF0904108600846006883
:100BC00040F0080008600846006A20F0F000086263
:100BD0000846006A40F010000862704700100240AA
:100BE0002DE9F04FE7B0FFF7E5FDFFF7DFFE00F07E
:100BF000E1F940F2B634002727E07FA18448FFF7EF
:100C000063FB8348FFF7F1FB05462A46804981488C
:100C1000FFF75AFF00F096F90746012F15D07EA185
:100C20007B48FFF751FB7A48FFF7DFFB0646324669
:100C300077497848FFF748FFFFF766FF0546792DAB
:100C400002D0592D00D002E000BF002FD5D000BF48
:100C5000002F7CD077A16E48FFF736FB6C48FFF77A
:100C6000C4FB05462A466A496A48FFF72DFFBDE0E6
:100C70004FF4CA7102A8FFF7D7FB4FF0000BD9461B
:100C800004F1640322466FA16148FFF71DFB604831
:100C9000FFF7ABFB05462A465D495E48FFF714FFA8
:100CA00076A15B48FFF710FB5948FFF79EFB05460E
:100CB0002A4657495748FFF707FFFFF725FF8246A7
:100CC000BAF1790F2CD0BAF1590F29D0002512E0D2
:100CD00073A14F48FFF7F8FA4D48FFF786FB02462D
:100CE0004B4901904B48FFF7EFFEFFF71DFF05460C
:100CF00005F1640600BF322DEADB42F27A608542DC
:100D0000E6DC75A14248FFF7DFFA4148FFF76DFBCB
:100D1000064632463E493F48FFF7D6FE2C4600BF06
:100D200075A13B48FFF7D0FA3948FFF75EFB05464F
:100D30002A4637493748FFF7C7FE00F069F900BF78
:100D400000F032F900F00F000028F9D000E04EE08A
:100D500000F022F980461EE000BF00F025F900F007
:100D60000F000028F9D000F017F90646A6EB080599
:100D7000B046A5420CD904F16400854208D2281B74
:100D800002A951F82000401C291B02AA42F82100A8
:100D900009F1010900BFB9F57A7FDDD300F041F90F
:100DA0005DA11B48FFF790FA1948FFF71EFB0546A7
:100DB0002A4617491748FFF787FE002513E002A8C7
:100DC00050F8256076B12A1933465AA11048FFF72A
:100DD0007BFA0F48FFF709FB02460D4901900D48C9
:100DE000FFF772FE6D1C652DE9DB00BF40E70020B8
:100DF00067B000F0A3B800000D0A53746172746903
:100E00006E6720504F53542E2E2E0D0A0000000006
:100E10002C00002000440040504F5354206661696C
:100E20006C65642C2072657472793F2028592F4EAE
:100E3000290D0A00504F5354207375636365737313
:100E4000210D0A00546865206D696E696D756D200D
:100E5000626F756E6420697320256420616E642062
:100E6000746865206D6178696D756D20626F756E4F
:100E700064206973202564210D0A0000446F2079E5
:100E80006F75206163636570742074686520626F9C
:100E9000756E64733F2028592F4E290D0A000000FB
:100EA0000A0D456E74657220746865206C6F7765F5
:100EB0007220626F756E6420696E2074686520729E
:100EC000616E6765206F6620353020746F20393978
:100ED00035300D0A000000000A0D4163636570742F
:100EE0006564206E6577206C6F77657220626F7520
:100EF0006E642E0D0A0000000A0D426567696E6E71
:100F0000696E67206D6561737572656D656E74736A
:100F10002E2E2E0D0A0000000A0D4D6561737572AC
:100F2000656D656E747320636F6D706C657465219B
:100F30000D0A000025640925640A0D0030BCBDE8D7
:100F4000C08F000070B500F063F800F029F8064685
:100F5000002500240DE000F027F800F00F0040B15C
:100F60001DB900F019F8054603E014B900F014F8B3
:100F7000044600F015F8801B06498842EBD300F0C8
:100F800050F8601B0349884202D20CB1012070BDA9
:100F90000020FCE7A08601004FF08040806B704786
:100FA0004FF08040406A70474FF08040006900F089
:100FB0000400704710B5FFF7F3FD1448806D40F052
:100FC00001001249886550208106886280064069C8
:100FD00040F0010048610846006A20F010000862F5
:100FE0000846006A00F0A00008620846806920F404
:100FF000704088610846806940F4807088610846C6
:10100000006A40F01000086210BD000000100240AD
:101010004FF08040006840F001004FF080410860D0
:1010200070474FF0804000684FF080410860704783
:1010300010B500290AD00878002807D00548784460
:10104000FFF770FB002801D0002010BD0248784453
:1010500010BD00004A000000420000004FF0407048
:10106000E1EE100A7047000098110008000000200F
:101070000C000000C4010008A41100080C000020AE
:10108000A4060000E0010008100100004300000079
:10109000F8FFFFFF00404040404040404040414199
:1010A000414141404040404040404040404040403D
:1010B00040404040400502020202020202020202D7
:1010C00002020202022020202020202020202002D4
:1010D0000202020202029090909090901010101064
:1010E0001010101010101010101010101010101000
:1010F0000202020202028888888888880808080894
:10110000080808080808080808080808080808085F
:101110000202020240000000000000000000000087
:1011200000000000000000000000000000000000BF
:1011300000000000000000000000000000000000AF
:10114000000000000000000000000000000000009F
:10115000000000000000000000000000000000008F
:10116000000000000000000000000000000000007F
:10117000000000000000000000000000000000006F
:10118000000000000000000000000000000000005F
:10119000000000000000000000000000000000004F
:0411A000000000004B
:040000050800018965
:00000001FF
