:020000040800F2
:10000000A007002029020008650200086702000816
:10001000690200086B0200086D0200080000000081
:100020000000000000000000000000006F02000857
:100030007102000800000000730200087502000849
:1000400077020008770200087702000877020008AC
:10005000770200087702000877020008770200089C
:10006000770200087702000877020008770200088C
:10007000770200087702000877020008770200087C
:10008000770200087702000877020008770200086C
:10009000770200087702000877020008770200085C
:1000A000770200087702000877020008770200084C
:1000B000770200087702000877020008770200083C
:1000C000770200087702000877020008770200082C
:1000D000770200087702000877020008770200081C
:1000E000770200087702000877020008770200080C
:1000F00077020008770200087702000877020008FC
:1001000077020008770200087702000877020008EB
:1001100077020008770200087702000877020008DB
:1001200077020008770200087702000877020008CB
:1001300077020008770200087702000877020008BB
:1001400077020008770200087702000877020008AB
:10015000770200087702000877020008770200089B
:10016000770200087702000877020008770200088B
:1001700077020008770200087702000800000000FC
:10018000770200087702000800F002F800F03CF85F
:100190000AA090E8000C82448344AAF10107DA45E2
:1001A00001D100F031F8AFF2090EBAE80F0013F0F8
:1001B000010F18BFFB1A43F0010318475409000050
:1001C00074090000103A24BF78C878C1FAD85207E1
:1001D00024BF30C830C144BF04680C6070470000C1
:1001E0000023002400250026103A28BF78C1FBD840
:1001F000520728BF30C148BF0B6070471FB500F0E1
:1002000082FC1FBD10B510BD00F0A4F81146FFF729
:10021000F5FF00F04FFB00F0C2F803B4FFF7F2FF68
:1002200003BC00F0C9F8000016481749174B994263
:100230003CBF50F8042B41F8042BF8D314494FF07D
:1002400000028B4238BF43F8042BFAD3DFF8440096
:10025000016841F470010160BFF34F8FBFF36F8FEE
:100260000D480047FEE7FEE7FEE7FEE7FEE7FEE794
:10027000FEE7FEE7FEE7FEE708480949094A0A4BA0
:1002800070470000300B000800000020A000002094
:10029000A007002088ED00E089010008A0010020EF
:1002A000A0070020A0030020A003002010B5431CDD
:1002B00002E010F8011B71B18107FAD14FF0013251
:1002C00002C88C1A8C4314EAC211F9D0C01A0A066B
:1002D00003D0C01E10BDC01A10BD0A0401D0801E7C
:1002E00010BD0902FCD0401E10BD10B5203AC0F070
:1002F0000B80B1E81850203AA0E81850B1E8185027
:10030000A0E81850BFF4F5AF5FEA027C24BFB1E863
:100310001850A0E8185044BF18C918C0BDE81040D4
:100320005FEA827C24BF51F8043B40F8043B08BFDD
:100330007047D20728BF31F8023B48BF11F8012BA4
:1003400028BF20F8023B48BF00F8012B70477047D8
:1003500070477047754600F02BF8AE4605006946B9
:10036000534620F00700854618B020B5FFF784FFFC
:10037000BDE820404FF000064FF000074FF00008A6
:100380004FF0000B21F00701AC46ACE8C009ACE827
:10039000C009ACE8C009ACE8C0098D46704710B58B
:1003A0000446AFF300802046BDE81040FFF735BF9C
:1003B000004870474001002001491820ABBEFEE70D
:1003C00026000200704700002348C06C40F0120075
:1003D0002149C8646FF03000204908600846006871
:1003E00040F0100008601D480830006820F0300020
:1003F0001A49083108600846006840F0300008607B
:10040000081F006820F00400091F086013480C3022
:10041000006820F0300011490C3108606FF4403062
:100420000F4908600846006840F4803008600846BC
:10043000806820F4403088600846806840F440308E
:1004400088600846406820F4807048600846C068AC
:1004500020F44030C860704700100240000400489B
:10046000001000485E49096821F007015C4A1160EC
:100470001146096841F0020111605A49096841F4C6
:100480008071584A116000BF5649096801F48061C3
:100490000029F9D010205349496821F0F851514AF8
:1004A00051601146496841EA00615160114609688E
:1004B00021F08071116000BF4A49096801F00071A4
:1004C000B1F1007FF8D04749C96821F00301454ADE
:1004D000D1601146C96841F00201D1601146C96876
:1004E00021F4FE4141F4A051D1601146C96821F0C8
:1004F000700141F01001D1601146C96821F0C0615E
:10050000D1601146C96841F08071D1601146096817
:1005100041F08071116000BF3249096801F000713B
:100520000029F9D02F49896821F003012D4A9160F3
:100530001146896841F00301916000BF294989682B
:1005400001F00C010C29F9D12649896821F0F0014C
:10055000244A91601146896821F4E0619160114656
:10056000896821F4605191601146096821F0806129
:10057000116000BF1B49096801F08061B1F1806F13
:10058000F8D01849096921F4FE41164A1161114653
:10059000096941F4C05111611146096941F4003102
:1005A00011611146096941F48031116111460968F0
:1005B00041F08061116000BF0A49096801F0806163
:1005C0000029F9D007498831096821F44001054A1A
:1005D000C2F888101146096E41F400111166704787
:1005E00000200240001002401A48C06C40F0080091
:1005F0001849C8641848006820F47050164908600B
:100600000846006840F42050086013482030006815
:1006100040F0EE601049203108600F480830006853
:1006200040F470500C4908310860081D006820F43F
:100630007050091D08600846006840F4A05008602A
:100640000548001D006820F060000349091D08608E
:100650007047000000100240000C004800B50D4833
:10066000806D40F400300B4988650A488830006886
:1006700020F00C00C1F888000846D0F8880040F04F
:100680000400C1F88800FFF7AFFF034800F010F83E
:1006900000BD0000001002400044004064224243BC
:1006A0000723B2FBF3F100BF4A1E111EFCD17047B5
:1006B000016821F001010160016821F01021016051
:1006C000016821F400410160416821F4405141601A
:1006D00042F28D01C160016841F00C0101601E49C8
:1006E00088421BD1016841F020010160016821F0BE
:1006F00040010160016821F010010160016821F0F2
:1007000080010160016821F480710160016821F0BD
:1007100040010160016821F0010101600F49884238
:1007200009D1016A41F0400101620D49096841F0B7
:10073000C0010B4A1160016841F00101016000BF76
:10074000C16901F400110029FAD000BFC16901F4A8
:1007500080010029FAD07047004C0040004400405E
:1007600008380140F0B504460E46174600250CE057
:1007700000BFE06900F080000028FAD0705D20859D
:100780004FF49670FFF78AFF6D1CBD42F0D300BF97
:10079000E06900F040000028FAD0E06920F0400055
:1007A000E061F0BD00B597B03A483B4908603B486E
:1007B0003B490860002038494860394948600120B9
:1007C000354908723649087202203349C86203204D
:1007D0003349C86200203349086048608860C860B7
:1007E00008610120087630480068C8610B46103364
:1007F0000FCB8DE80F002B480FC800F0A1F8294956
:100800004861202224480C30FFF76FFD0020274963
:10081000086048608860C860086101200876244844
:100820000068C8610B4610330FCB8DE80F001F48DE
:100830000FC800F085F81D494861202218480C3087
:10084000FFF753FD00202822134908310A9068461B
:10085000FFF74BFD104802210CC80BA800F098F8D8
:1008600030220BA90C48FFF740FD002028220C493C
:1008700008310A906846FFF738FD094802210CC884
:100880000BA800F085F830220BA90548FFF72DFDD5
:1008900017B000BD00000020A000002018000020BC
:1008A000D00000200001002098000020200100203E
:1008B0009C00002010B5FFF7D5FDFFF7CFFE00F03C
:1008C0008DF800F017F9FFF77FFDFFF76BFF094880
:1008D00000F014F808A1074800F022F800240421D1
:1008E000022000F03AF81421032000F036F800202E
:1008F00010BD0000004400403E00000018B5044652
:100900000D200090012269462046FFF72BFF0A20A8
:100910000090012269462046FFF724FF18BD000021
:1009200070B506460C462046FFF7C0FC05462A4631
:1009300021460248FFF716FF70BD0000004400404A
:100940000FB4002100E0491C0798405C00F0E00073
:100950000028F8D1481C04B07047012806D00228AE
:1009600008D003280AD0042810D10BE04FF08042B1
:1009700051630BE04FF08042916307E04FF08042FB
:10098000D16303E04FF08042116400BF00BF7047A5
:100990000FB470B506460D46129C8DF8205007988E
:1009A000A04205DD0798001B0121C1EB400004E0D7
:1009B0000798201A0121C1EB40000A900794069A7B
:1009C00052F824101198FFF7C8FF302206A93046CC
:1009D000FFF78BFC70BC5DF814FB00004448C06C52
:1009E00040F001004249C8644FF09040006820F098
:1009F0000C004FF0904108600846006840F0080085
:100A000008600846006820F030000860084600686A
:100A100040F0200008600846006A20F0F0000862FC
:100A20000846006A40F0100008620846006A20F498
:100A3000706008620846006A40F4807008622C48C2
:100A4000806D40F001002A4988654FF4FA50010694
:100A500088620006406940F0010048610846006A6B
:100A600020F0100008620846006A20F480700862D6
:100A70000846806940F4C04088610846806920F4D7
:100A8000805088610846C06940F06000C86108462F
:100A9000C06920F01000C8610846806940F4006019
:100AA00088610846C06940F00800C86108460068CF
:100AB00040F0800008600846006A40F010000862BC
:100AC0000846006A40F4807008620846006A20F018
:100AD000200008620846006A20F400700862C720FF
:100AE000C8620846406940F0010048617047000054
:100AF000001002404FF08040006840F001004FF0CD
:100B00008041086070474FF04070E1EE100A704776
:100B1000300B000800000020A0000000C401000805
:100B2000D00B0008A000002000070000E001000832
:100B300006000000090000000B0000000E0000008D
:100B40001100000015000000060000000900000070
:100B50000B0000000E000000110000001500000056
:100B6000202122232425002025212422230085233F
:100B7000254AA0244321009F2522A00025422220AF
:100B800000250020252023802124A020224023406E
:100B900022235F5F5F2400254222202583822500D7
:100BA00025422220292500256020230022236000E1
:100BB0002342C220255422C22520002342C22025E0
:100BC0005422C425200000008B000020800000205B
:040000050800018965
:00000001FF
