:020000040800F2
:10000000600600200D020008490200084B020008AB
:100010004D0200084F0200085102000800000000D5
:100020000000000000000000000000005302000873
:10003000550200080000000057020008590200089D
:100040005B0200085B0200085B0200085B0200081C
:100050005B0200085B0200085B0200085B0200080C
:100060005B0200085B0200085B0200085B020008FC
:100070005B0200085B0200085B0200085B020008EC
:100080005B0200085B0200085B0200085B020008DC
:100090005B0200085B0200085B0200085B020008CC
:1000A0005B0200085B0200085B0200085B020008BC
:1000B0005B0200085B0200085B0200085B020008AC
:1000C0005B0200085B0200085B0200085B0200089C
:1000D0005B0200085B0200085B0200085B0200088C
:1000E0005B0200085B0200085B0200085B0200087C
:1000F0005B0200085B0200085B0200085B0200086C
:100100005B0200085B0200085B0200085B0200085B
:100110005B0200085B0200085B0200085B0200084B
:100120005B0200085B0200085B0200085B0200083B
:100130005B0200085B0200085B0200085B0200082B
:100140005B0200085B0200085B0200085B0200081B
:100150005B0200085B0200085B0200085B0200080B
:100160005B0200085B0200085B0200085B020008FB
:100170005B0200085B0200085B0200080000000050
:100180005B0200085B02000800F002F800F02EF8A5
:100190000AA090E8000C82448344AAF10107DA45E2
:1001A00001D100F023F8AFF2090EBAE80F0013F006
:1001B000010F18BFFB1A43F001031847E4060000C3
:1001C000F40600000023002400250026103A28BF72
:1001D00078C1FBD8520728BF30C148BF0B607047B9
:1001E0001FB500F057FB1FBD10B510BD00F053F850
:1001F0001146FFF7F5FF00F06BFA00F071F803B459
:10020000FFF7F2FF03BC00F079F800001648174929
:10021000174B99423CBF50F8042B41F8042BF8D3FC
:1002200014494FF000028B4238BF43F8042BFAD335
:10023000DFF84400016841F470010160BFF34F8FA3
:10024000BFF36F8F0D480047FEE7FEE7FEE7FEE7CE
:10025000FEE7FEE7FEE7FEE7FEE7FEE7084809499E
:10026000094A0A4B70470000B0080008000000204F
:10027000000000206006002088ED00E089010008F1
:100280006000002060060020600200206002002064
:10029000704770477047754600F02CF8AE46050071
:1002A0006946534620F00700854618B020B5FFF791
:1002B000D5FFBDE820404FF000064FF000074FF09B
:1002C00000084FF0000B21F00701AC46ACE8C00974
:1002D000ACE8C009ACE8C009ACE8C0098D4670477D
:1002E00010B50446AFF300802046BDE81040FFF78C
:1002F00086BF000000487047000000200149182018
:10030000ABBEFEE726000200704700002348C06C29
:1003100040F012002149C8646FF0300020490860A5
:100320000846006840F0100008601D48083000686A
:1003300020F030001A49083108600846006840F093
:1003400030000860081F006820F00400091F0860E2
:1003500013480C30006820F0300011490C3108605F
:100360006FF440300F4908600846006840F4803060
:1003700008600846806820F440308860084680683D
:1003800040F4403088600846406820F4807048603F
:100390000846C06820F44030C86070470010024032
:1003A00000040048001000480348006840F00400C2
:1003B00001490860704700001404004803480068C1
:1003C00080F00400014908607047000014040048F0
:1003D0005E49096821F007015C4A1160114609680D
:1003E00041F0020111605A49096841F48071584A8C
:1003F000116000BF5649096801F480610029F9D0F5
:1004000010205349496821F0F851514A5160114672
:10041000496841EA006151601146096821F0807124
:10042000116000BF4A49096801F00071B1F1007F15
:10043000F8D04749C96821F00301454AD160114607
:10044000C96841F00201D1601146C96821F4FE413A
:1004500041F4A051D1601146C96821F0700141F00A
:100460001001D1601146C96821F0C061D160114608
:10047000C96841F08071D1601146096841F080710E
:10048000116000BF3249096801F000710029F9D0FC
:100490002F49896821F003012D4A9160114689682E
:1004A00041F00301916000BF2949896801F00C0106
:1004B0000C29F9D12649896821F0F001244A91607C
:1004C0001146896821F4E06191601146896821F440
:1004D000605191601146096821F08061116000BF90
:1004E0001B49096801F08061B1F1806FF8D01849AB
:1004F000096921F4FE41164A11611146096941F466
:10050000C05111611146096941F400311161114670
:10051000096941F4803111611146096841F0806137
:10052000116000BF0A49096801F080610029F9D013
:1005300007498831096821F44001054AC2F888104A
:100540001146096E41F40011116670470020024007
:10055000001002401A48C06C40F008001849C864F6
:100560001848006820F47050164908600846006872
:1005700040F42050086013482030006840F0EE60DE
:100580001049203108600F480830006840F470506E
:100590000C4908310860081D006820F47050091DDE
:1005A00008600846006840F4A05008600548001D37
:1005B000006820F060000349091D086070470000D2
:1005C00000100240000C004800B50D48806D40F45A
:1005D00000300B4988650A488830006820F00C001C
:1005E000C1F888000846D0F8880040F00400C1F83F
:1005F0008800FFF7AFFF034800F006F800BD0000D9
:100600000010024000440040016821F00101016037
:10061000016821F010210160016821F400410160AE
:10062000416821F44051416042F28D01C16001688E
:1006300041F00C0101601E4988421BD1016841F064
:1006400020010160016821F040010160016821F092
:1006500010010160016821F080010160016821F44E
:1006600080710160016821F040010160016821F0A2
:10067000010101600F49884209D1016A41F040013E
:1006800001620D49096841F0C0010B4A116001681F
:1006900041F00101016000BFC16901F400110029AE
:1006A000FAD000BFC16901F480010029FAD0704777
:1006B000004C0040004400400838014000B50146AD
:1006C00000F034F802468A4200D2C832501A00BD07
:1006D000FFF77EFEFFF778FF00F02EF800F0D0F86D
:1006E000642000F017F8322000F01AF8FFF70EFE31
:1006F000FFF75AFE00BF0BE000F018F8044600BFF9
:100700002046FFF7DBFF6428FAD3FFF757FE00BF50
:10071000F2E700000149086070470000340800401B
:10072000014908607047000038080040014800682F
:1007300070470000240800404E48C06C40F00200A2
:100740004C49C8644C48006820F440504A4908604D
:100750000846006840F4005008600846006820F42D
:10076000404008600846006840F400400860424885
:100770002030006820F070603F4920310860084652
:10078000006840F0007008600846006820F0704083
:1007900008600846006840F0005008603548806DE9
:1007A00040F004003349886541F63F7033490860E2
:1007B00032481438006840F00100304914390860AC
:1007C0002E480838006820F001002C4908390860DC
:1007D0000846006820F010000860284810380068BB
:1007E00040F060002549103908600846006820F094
:1007F000100008600846006840F4C04008600846E1
:10080000006820F4805008600846006840F0080046
:1008100008600846006840F40060086017482838FF
:10082000006840F0800015492839086013480838EE
:10083000006840F001001149083908600846006866
:1008400040F0100008600846006820F002000860D0
:100850000846006820F020000860C8200749091DEC
:10086000086006481438006840F001000349143954
:10087000086070470010024000040048280800404B
:100880000348006840F0010001490860704700001B
:10089000000800404FF04070E1EE100A7047000081
:1008A000B00800080000002060060000C401000835
:040000050800018965
:00000001FF
