:020000040800F2
:10000000580700202902000865020008670200085E
:10001000690200086B0200086D0200080000000081
:100020000000000000000000000000006F02000857
:100030007102000800000000730200087502000849
:1000400077020008770200087702000877020008AC
:10005000770200087702000877020008770200089C
:10006000770200087702000877020008770200088C
:10007000770200087702000877020008770200087C
:10008000770200087702000877020008770200086C
:10009000770200087702000877020008770200085C
:1000A000770200087702000877020008770200084C
:1000B000770200087702000877020008770200083C
:1000C000770200087702000877020008770200082C
:1000D000770200087702000877020008770200081C
:1000E000770200087702000877020008770200080C
:1000F00077020008770200087702000877020008FC
:1001000077020008770200087702000877020008EB
:1001100077020008770200087702000877020008DB
:1001200077020008770200087702000877020008CB
:1001300077020008770200087702000877020008BB
:1001400077020008770200087702000877020008AB
:10015000770200087702000877020008770200089B
:10016000770200087702000877020008770200088B
:1001700077020008770200087702000800000000FC
:10018000770200087702000800F002F800F03CF85F
:100190000AA090E8000C82448344AAF10107DA45E2
:1001A00001D100F031F8AFF2090EBAE80F0013F0F8
:1001B000010F18BFFB1A43F001031847400D000060
:1001C000600D0000103A24BF78C878C1FAD85207F1
:1001D00024BF30C830C144BF04680C6070470000C1
:1001E0000023002400250026103A28BF78C1FBD840
:1001F000520728BF30C148BF0B6070471FB500F0E1
:1002000077FE1FBD10B510BD00F0A4F81146FFF732
:10021000F5FF00F029FB00F0C2F803B4FFF7F2FF8E
:1002200003BC00F0C9F8000016481749174B994263
:100230003CBF50F8042B41F8042BF8D314494FF07D
:1002400000028B4238BF43F8042BFAD3DFF8440096
:10025000016841F470010160BFF34F8FBFF36F8FEE
:100260000D480047FEE7FEE7FEE7FEE7FEE7FEE794
:10027000FEE7FEE7FEE7FEE708480949094A0A4BA0
:10028000704700001C0F00080000002058000020EC
:100290005807002088ED00E089010008580100207F
:1002A00058070020580300205803002010B5431CB5
:1002B00002E010F8011B71B18107FAD14FF0013251
:1002C00002C88C1A8C4314EAC211F9D0C01A0A066B
:1002D00003D0C01E10BDC01A10BD0A0401D0801E7C
:1002E00010BD0902FCD0401E10BD10B5203AC0F070
:1002F0000B80B1E81850203AA0E81850B1E8185027
:10030000A0E81850BFF4F5AF5FEA027C24BFB1E863
:100310001850A0E8185044BF18C918C0BDE81040D4
:100320005FEA827C24BF51F8043B40F8043B08BFDD
:100330007047D20728BF31F8023B48BF11F8012BA4
:1003400028BF20F8023B48BF00F8012B70477047D8
:1003500070477047754600F02BF8AE4605006946B9
:10036000534620F00700854618B020B5FFF784FFFC
:10037000BDE820404FF000064FF000074FF00008A6
:100380004FF0000B21F00701AC46ACE8C009ACE827
:10039000C009ACE8C009ACE8C0098D46704710B58B
:1003A0000446AFF300802046BDE81040FFF735BF9C
:1003B00000487047F800002001491820ABBEFEE756
:1003C00026000200704700005E49096821F007011D
:1003D0005C4A11601146096841F0020111605A49F6
:1003E000096841F48071584A116000BF5649096894
:1003F00001F480610029F9D010205349496821F0A7
:10040000F851514A51601146496841EA0061516012
:100410001146096821F08071116000BF4A490968DE
:1004200001F00071B1F1007FF8D04749C96821F0AF
:100430000301454AD1601146C96841F00201D1600B
:100440001146C96821F4FE4141F4A051D160114622
:10045000C96821F0700141F01001D1601146C968EE
:1004600021F0C061D1601146C96841F08071D1604E
:100470001146096841F08071116000BF3249096876
:1004800001F000710029F9D02F49896821F003019A
:100490002D4A91601146896841F00301916000BFC7
:1004A0002949896801F00C010C29F9D1264989688C
:1004B00021F0F001244A91601146896821F4E0613D
:1004C00091601146896821F4605191601146096874
:1004D00021F08061116000BF1B49096801F0806153
:1004E000B1F1806FF8D01849096921F4FE41164A2C
:1004F00011611146096941F4C05111611146096940
:1005000041F4003111611146096941F480311161F2
:100510001146096841F08061116000BF0A4909680D
:1005200001F080610029F9D007498831096821F478
:100530004001054AC2F888101146096E41F40011C5
:100540001166704700200240001002401A48C06C3B
:1005500040F008001849C8641848006820F470503A
:10056000164908600846006840F4205008601348A7
:100570002030006840F0EE601049203108600F48DC
:100580000830006840F470500C4908310860081DBC
:10059000006820F47050091D08600846006840F4A7
:1005A000A05008600548001D006820F06000034965
:1005B000091D08607047000000100240000C004850
:1005C00000B50D48806D40F400300B4988650A483D
:1005D0008830006820F00C00C1F888000846D0F888
:1005E000880040F00400C1F88800FFF7AFFF03481F
:1005F00000F010F800BD0000001002400044004070
:10060000642242430723B2FBF3F100BF4A1E111ECE
:10061000FCD17047016821F001010160016821F0FF
:1006200010210160016821F400410160416821F45A
:100630004051416042F28D01C160016841F00C01FE
:1006400001601E4988421BD1016841F02001016010
:10065000016821F040010160016821F01001016092
:10066000016821F080010160016821F4807101605E
:10067000016821F040010160016821F00101016081
:100680000F49884209D1016A41F0400101620D49D8
:10069000096841F0C0010B4A1160016841F0010195
:1006A000016000BFC16901F400110029FAD000BF48
:1006B000C16901F480010029FAD07047004C004064
:1006C0000044004008380140014600BFC86900F0FE
:1006D00020000028FAD0888CC0B270470146C86953
:1006E00000F020007047F0B504460E46174600257E
:1006F0000CE000BFE06900F080000028FAD0705DD7
:1007000020854FF49670FFF77BFF6D1CBD42F0D340
:1007100000BFE06900F040000028FAD0E06920F056
:100720004000E061F0BD18B504462046FFF7CCFF5D
:100730000090012269462046FFF7D5FF9DF8000092
:1007400018BD00B5014600F007FB02468A4200D200
:10075000C832501A00BD000000B597B03A483B4976
:1007600008603B483B4908600020384948603949E7
:100770004860012035490872364908723349C86219
:1007800002203449C862002033490860486088600C
:10079000C8600861012008763048C861D1E90523A6
:1007A0000869C9698DE80D0003912B480FC800F056
:1007B00085F929494861202224480C30FFF795FD2E
:1007C00000202749086048608860C86008610120EF
:1007D00008762448C8610B4610330FCB8DE80F0014
:1007E0001F480FC800F06AF91D49486120221948C6
:1007F0000C30FFF77AFD00202822144908310A90B6
:100800006846FFF772FD114802210CC80BA800F0E2
:1008100083FA30220BA90D48FFF767FD002028223C
:100820000C4908310A906846FFF75FFD094802212C
:100830000CC80BA800F070FA30220BA90548FFF78E
:1008400054FD17B000BD000000000020580000203B
:100850001800002088000020B80000203E00002082
:10086000D80000203900002008B5FFF7ADFDFFF7E4
:10087000A7FE00F077FA00F019FBFFF76DFF2148A3
:1008800000F044F820A11F4800F008F9002438E0E7
:1008900000F062FA06461B48FFF720FF30B3022C37
:1008A00008DA1848FFF73FFF2146621CD4B20DF862
:1008B00001001BE01348FFF736FF0D280ED19DF80D
:1008C000000000F034F807469DF8010000F02FF812
:1008D00080464146384600F0B3F800BF002409487E
:1008E00000F014F808A1074800F0D8F800F0F4F878
:1008F0003046FFF726FF0546C5F1640000F0EBFA2D
:1009000000BFC5E7004400403E00000018B50446A3
:100910000D200090012269462046FFF7E4FE0A20E0
:100920000090012269462046FFF7DDFE18BD014612
:10093000432901D0632901D103207047502901D0F8
:10094000702901D10220F8E74C2901D06C2901D18E
:100950000020F2E7522901D0722901D10120ECE7F1
:10096000422901D0622901D10420E6E70620E4E70C
:100970000FB430B597B005460C46042C08D10020C2
:100980001F9000211CA88161C16141618DF8941004
:10099000022C02D101218DF89410032C02D10021E8
:1009A0008DF894109DF8940001283FD19DF87800AF
:1009B00030B1012836D0022836D0032835D132E0B4
:1009C000B4B91D98052813DA1D98401CC0B228221E
:1009D0001EA90A906846FFF788FC02210BA8DDE9F2
:1009E0001C2300F099F930220BA91CA8FFF77DFC0D
:1009F000012C16D11D98002813DD1D98401EC0B291
:100A000028221EA90A906846FFF76FFC02210BA856
:100A1000DDE91C2300F080F930220BA91CA8FFF7A8
:100A200064FC02E001E000E000BF00BF30221CA92E
:100A30002846FFF75AFC17B030BC5DF814FB0000E5
:100A400030B597B004460D46282212496846FFF794
:100A50004CFC1048083821460CC80BA8FFF788FF4B
:100A600030220BA90B480838FFF73FFC28220A491F
:100A70006846FFF73AFC0848083829460CC80BA816
:100A8000FFF776FF30220BA903480838FFF72DFC4B
:100A900017B030BD600000209000002070B5064601
:100AA0000C462046FFF702FC05462A46214602482E
:100AB000FFF719FE70BD0000004400400FB4002194
:100AC00000E0491C0798405C00F0E0000028F8D1E5
:100AD000481C04B07047000000B595B024221149AD
:100AE0006846FFF702FC0F480C380EC809A800F052
:100AF0001DF8302209A90B480C38FFF7F6FB242219
:100B000009496846FFF7F1FB07480C380EC809A8E9
:100B100000F00CF8302209A903480C38FFF7E5FB78
:100B200015B000BD64000020940000200FB4F0B5A3
:100B300097B007469DF8980058B100208DF87C00CA
:100B400030221DA93846FFF7D0FB17B0F0BC5DF886
:100B500014FB1DA8806A2099455C05F0E00605F0AD
:100B60001F041F2C08DD02218DF8981030221DA9CA
:100B70003846FFF7BAFBE8E706F00F00002837D148
:100B800030110D2834D2DFE800F09EA2077B34A29A
:100B9000A2A253A264A28900052C03DD02218DF8D4
:100BA000981025E09DF87C00022811D028221FA96A
:100BB00068460A94FFF799FB02210BA8DDE91D2383
:100BC00000F0AAF830220BA91DA8FFF78EFB0FE05A
:100BD0001DA80069002805DD1DA80069401E1DA98B
:100BE000086105E000208DF87C002098401C2090D2
:100BF0006DE01DA84069012805DD1DA84069401E63
:100C00001DA9486113E01DA84069012808D11DA84D
:100C10004069401E1DA948612098401C209006E0B4
:100C20001CB92098401C209001E01DA844614EE0B2
:100C30001DA8806918B103218DF8981005E020984F
:100C4000401C1DA988611DA8C4612098401C2090EB
:100C50003DE01DA8C069002807DD1DA8C069401E31
:100C60001DA9C8611DA8806920901DA8C069002821
:100C700005DC00211DA881612098401C209026E001
:100C80002098401C1DA9096A884203DD02218DF8C5
:100C9000981002E02098801C209000BF2098011935
:100CA0001DA8006A814203DD02218DF8981009E039
:100CB0001E98022803DD20982044209002E020980E
:100CC000401C209000BF03208DF87C0000BF00BFB7
:100CD00030221DA93846FFF708FB00BF35E70000AA
:100CE000012806D0022807D0032809D004280FD1F4
:100CF0000AE0084A11600BE0064A121D116007E085
:100D0000044A0832116003E0024A0C32116000BF4D
:100D100000BF7047340800400FB470B506460D465A
:100D2000129C8DF820500798A04202DD0798001B06
:100D300001E00798201A0A900794069A52F82410A6
:100D40001198FFF7CDFF302206A93046FFF7CDFA04
:100D500070BC5DF814FB000001480068704700009B
:100D6000240800404E48C06C40F002004C49C86462
:100D70004C48006820F440504A4908600846006822
:100D800040F4005008600846006820F440400860C5
:100D90000846006840F4004008604248203000687F
:100DA00020F070603F49203108600846006840F03C
:100DB000007008600846006820F07040086008462F
:100DC000006840F0005008603548806D40F0040035
:100DD000334988654FF4FA50334908603248143873
:100DE000006840F001003049143908602E48083886
:100DF000006820F001002C490839086008460068A6
:100E000020F01000086028481038006840F06000AA
:100E10002549103908600846006820F01000086075
:100E20000846006840F4C04008600846006820F4A6
:100E3000805008600846006840F0080008600846D6
:100E4000006840F40060086017482838006840F0E7
:100E5000800015492839086013480838006840F0B8
:100E600001001149083908600846006840F0100088
:100E700008600846006820F0020008600846006824
:100E800020F020000860C7200749091D08600648B7
:100E90001438006840F001000349143908607047B5
:100EA0000010024000040048280800400348006881
:100EB00040F0010001490860704700000008004050
:100EC00010B5FFF749FF044600BF2046FFF739FC85
:100ED0006428FAD310BD70B50446002502E0FFF780
:100EE000EFFF6D1C0A20B4FBF0F0A842F7D870BDEC
:100EF0004FF04070E1EE100A704700001C0F000830
:100F00000000002058000000C4010008740F000811
:100F10005800002000070000E00100080500000064
:100F2000060000000A0000000D0000001100000093
:100F30001500000005000000060000000A00000087
:100F40000D00000011000000150000008523254A57
:100F5000A0244321009F2522A00023C34222200079
:100F600020252023802124A0202240234022235F0B
:040F70005F5F24009B
:040000050800018965
:00000001FF
