:020000040800F2
:100000003007002029020008650200086702000886
:10001000690200086B0200086D0200080000000081
:100020000000000000000000000000006F02000857
:100030007102000800000000730200087502000849
:1000400077020008770200087702000877020008AC
:10005000770200087702000877020008770200089C
:10006000770200087702000877020008770200088C
:10007000770200087702000877020008770200087C
:10008000770200087702000877020008770200086C
:10009000770200087702000877020008770200085C
:1000A000770200087702000877020008770200084C
:1000B000770200087702000877020008770200083C
:1000C000770200087702000877020008770200082C
:1000D000770200087702000877020008770200081C
:1000E000770200087702000877020008770200080C
:1000F00077020008770200087702000877020008FC
:1001000077020008770200087702000877020008EB
:1001100077020008770200087702000877020008DB
:1001200077020008770200087702000877020008CB
:1001300077020008770200087702000877020008BB
:1001400077020008770200087702000877020008AB
:10015000770200087702000877020008770200089B
:10016000770200087702000877020008770200088B
:1001700077020008770200087702000800000000FC
:10018000770200087702000800F002F800F03CF85F
:100190000AA090E8000C82448344AAF10107DA45E2
:1001A00001D100F031F8AFF2090EBAE80F0013F0F8
:1001B000010F18BFFB1A43F0010318471C0C000085
:1001C0003C0C0000103A24BF78C878C1FAD8520716
:1001D00024BF30C830C144BF04680C6070470000C1
:1001E0000023002400250026103A28BF78C1FBD840
:1001F000520728BF30C148BF0B6070471FB500F0E1
:10020000E5FD1FBD10B510BD00F0A4F81146FFF7C5
:10021000F5FF00F0E9FA00F0C2F803B4FFF7F2FFCF
:1002200003BC00F0C9F8000016481749174B994263
:100230003CBF50F8042B41F8042BF8D314494FF07D
:1002400000028B4238BF43F8042BFAD3DFF8440096
:10025000016841F470010160BFF34F8FBFF36F8FEE
:100260000D480047FEE7FEE7FEE7FEE7FEE7FEE794
:10027000FEE7FEE7FEE7FEE708480949094A0A4BA0
:1002800070470000F80D0008000000203C0000202E
:100290003007002088ED00E08901000830010020CF
:1002A00030070020300300203003002010B5431C2D
:1002B00002E010F8011B71B18107FAD14FF0013251
:1002C00002C88C1A8C4314EAC211F9D0C01A0A066B
:1002D00003D0C01E10BDC01A10BD0A0401D0801E7C
:1002E00010BD0902FCD0401E10BD10B5203AC0F070
:1002F0000B80B1E81850203AA0E81850B1E8185027
:10030000A0E81850BFF4F5AF5FEA027C24BFB1E863
:100310001850A0E8185044BF18C918C0BDE81040D4
:100320005FEA827C24BF51F8043B40F8043B08BFDD
:100330007047D20728BF31F8023B48BF11F8012BA4
:1003400028BF20F8023B48BF00F8012B70477047D8
:1003500070477047754600F02BF8AE4605006946B9
:10036000534620F00700854618B020B5FFF784FFFC
:10037000BDE820404FF000064FF000074FF00008A6
:100380004FF0000B21F00701AC46ACE8C009ACE827
:10039000C009ACE8C009ACE8C0098D46704710B58B
:1003A0000446AFF300802046BDE81040FFF735BF9C
:1003B00000487047CC00002001491820ABBEFEE782
:1003C00026000200704700005E49096821F007011D
:1003D0005C4A11601146096841F0020111605A49F6
:1003E000096841F48071584A116000BF5649096894
:1003F00001F480610029F9D010205349496821F0A7
:10040000F851514A51601146496841EA0061516012
:100410001146096821F08071116000BF4A490968DE
:1004200001F00071B1F1007FF8D04749C96821F0AF
:100430000301454AD1601146C96841F00201D1600B
:100440001146C96821F4FE4141F4A051D160114622
:10045000C96821F0700141F01001D1601146C968EE
:1004600021F0C061D1601146C96841F08071D1604E
:100470001146096841F08071116000BF3249096876
:1004800001F000710029F9D02F49896821F003019A
:100490002D4A91601146896841F00301916000BFC7
:1004A0002949896801F00C010C29F9D1264989688C
:1004B00021F0F001244A91601146896821F4E0613D
:1004C00091601146896821F4605191601146096874
:1004D00021F08061116000BF1B49096801F0806153
:1004E000B1F1806FF8D01849096921F4FE41164A2C
:1004F00011611146096941F4C05111611146096940
:1005000041F4003111611146096941F480311161F2
:100510001146096841F08061116000BF0A4909680D
:1005200001F080610029F9D007498831096821F478
:100530004001054AC2F888101146096E41F40011C5
:100540001166704700200240001002401A48C06C3B
:1005500040F008001849C8641848006820F470503A
:10056000164908600846006840F4205008601348A7
:100570002030006840F0EE601049203108600F48DC
:100580000830006840F470500C4908310860081DBC
:10059000006820F47050091D08600846006840F4A7
:1005A000A05008600548001D006820F06000034965
:1005B000091D08607047000000100240000C004850
:1005C00000B50D48806D40F400300B4988650A483D
:1005D0008830006820F00C00C1F888000846D0F888
:1005E000880040F00400C1F88800FFF7AFFF03481F
:1005F00000F010F800BD0000001002400044004070
:10060000642242430723B2FBF3F100BF4A1E111ECE
:10061000FCD17047016821F001010160016821F0FF
:1006200010210160016821F400410160416821F45A
:100630004051416042F28D01C160016841F00C01FE
:1006400001601E4988421BD1016841F02001016010
:10065000016821F040010160016821F01001016092
:10066000016821F080010160016821F4807101605E
:10067000016821F040010160016821F00101016081
:100680000F49884209D1016A41F0400101620D49D8
:10069000096841F0C0010B4A1160016841F0010195
:1006A000016000BFC16901F400110029FAD000BF48
:1006B000C16901F480010029FAD07047004C004064
:1006C0000044004008380140014600BFC86900F0FE
:1006D00020000028FAD0888CC0B270470146C86953
:1006E00000F020007047F0B504460E46174600257E
:1006F0000CE000BFE06900F080000028FAD0705DD7
:1007000020854FF49670FFF77BFF6D1CBD42F0D340
:1007100000BFE06900F040000028FAD0E06920F056
:100720004000E061F0BD18B504462046FFF7CCFF5D
:100730000090012269462046FFF7D5FF9DF8000092
:1007400018BD00B5014600F075FA02468A4200D293
:10075000C832501A00BD000010B51B481B49086084
:100760001B481C4908600020184948601949486026
:10077000012016490872174908721449886202203C
:100780001449886200201449086048608860C86085
:10079000086101200875114888611C220B480C3043
:1007A000FFF7A3FD00200E49086048608860C8601C
:1007B0000861012008750B4888611C2205480C302F
:1007C000FFF793FD10BD00000C0000203C0000204E
:1007D0002400002068000020940000200000002079
:1007E000B00000200800002008B5FFF7EDFDFFF77E
:1007F000E7FE00F025FA00F0C7FAFFF7ADFF1D484D
:1008000000F03CF81CA11B4800F0FCF800242FE08D
:100810001848FFF763FF30B3022C08DA1548FFF7DA
:1008200082FF2146621CD4B20DF801001BE0114882
:10083000FFF779FF0D280ED19DF8000000F02FF88A
:1008400005469DF8010000F02AF806463146284684
:1008500000F0AAF800BF0024064800F00FF806A137
:10086000044800F0CFF800F0DDF8642000F0A1FAB1
:10087000CEE70000004400403E00000018B50446EA
:100880000D200090012269462046FFF72CFF0A2028
:100890000090012269462046FFF725FF18BD01465A
:1008A000432901D0632901D103207047502901D089
:1008B000702901D10220F8E74C2901D06C2901D11F
:1008C0000020F2E7522901D0722901D10120ECE782
:1008D000422901D0622901D10420E6E700BFE4E704
:1008E0000FB430B595B005460C46042C08D1002055
:1008F0001D9000211AA88161C1611F918DF8881097
:10090000022C02D101218DF88810032C02D1002184
:100910008DF888109DF8880001283CD19DF8700062
:1009200020B1012834D0032834D132E0B4B91B9867
:10093000052813DA1B98401CC0B224221CA9099078
:100940006846FFF7D2FC02210AA8DDE91A2300F06D
:1009500051F92C220AA91AA8FFF7C7FC012C16D1BD
:100960001B98002813DD1B98401EC0B224221CA92E
:1009700009906846FFF7B9FC02210AA8DDE91A23AD
:1009800000F038F92C220AA91AA8FFF7AEFC01E002
:1009900000E000BF00BF2C221AA92846FFF7A5FCE3
:1009A00015B030BC5DF814FB30B595B004460D466B
:1009B000242212496846FFF798FC1048083821465F
:1009C0000CC80AA8FFF78CFF2C220AA90B4808388C
:1009D000FFF78BFC24220A496846FFF786FC08488B
:1009E000083829460CC80AA8FFF77AFF2C220AA962
:1009F00003480838FFF779FC15B030BD44000020EB
:100A00007000002070B506460C462046FFF74EFCED
:100A100005462A4621460248FFF765FE70BD0000E4
:100A20000044004000B593B0202211496846FFF70A
:100A30005CFC0F480C380EC808A800F01DF82C22EA
:100A400008A90B480C38FFF750FC202209496846DA
:100A5000FFF74BFC07480C380EC808A800F00CF84C
:100A60002C2208A903480C38FFF73FFC13B000BD47
:100A700048000020740000200FB4F0B595B0074680
:100A80009DF88C0058B100208DF874002C221BA911
:100A90003846FFF72AFC15B0F0BC5DF814FB1BA824
:100AA000406A1E99455C05F0E00605F01F04402EE3
:100AB00034D004DC002E74D0202E76D104E0802EB9
:100AC00046D0A02E71D154E0052C03DD02218DF813
:100AD0008C1022E09DF87400022811D024221DA958
:100AE00068460994FFF701FC02210AA8DDE91B23EF
:100AF00000F080F82C220AA91BA8FFF7F6FB0CE0F7
:100B00001F98002803DD1F98401E1F9005E000205D
:100B10008DF874001E98401C1E9046E01BA840698A
:100B2000012805DD1BA84069401E1BA948610EE095
:100B30001BA84069012808D11BA84069401E1BA9B9
:100B400048611E98401C1E9001E01BA844612CE0E7
:100B50001BA8806918B103218DF88C1005E01E9840
:100B6000401C1BA988611BA8C4611E98401C1E90D4
:100B70001BE01BA8C069002807DD1BA8C069401E38
:100B80001BA9C8611BA880691E901BA8C06900280A
:100B900005DC00211BA881611E98401C1E9004E00A
:100BA000FFE703208DF8740000BF00BF2C221BA9B3
:100BB0003846FFF79AFB00BF6DE70000012806D01A
:100BC000022807D0032809D004280FD10AE0084AD8
:100BD00011600BE0064A121D116007E0044A08325A
:100BE000116003E0024A0C32116000BF00BF704781
:100BF000340800400FB470B506460D46119C8DF8C0
:100C000020500798A04202DD0798001B01E00798DA
:100C1000201A0A900794069A52F824101098FFF7A9
:100C2000CDFF2C2206A93046FFF75FFB70BC5DF8B4
:100C300014FB0000014800687047000024080040D1
:100C40004E48C06C40F002004C49C8644C480068F3
:100C500020F440504A4908600846006840F40050BB
:100C600008600846006820F44040086008460068B4
:100C700040F40040086042482030006820F0706076
:100C80003F49203108600846006840F00070086065
:100C90000846006820F0704008600846006840F090
:100CA000005008603548806D40F004003349886585
:100CB0004FF4FA503349086032481438006840F065
:100CC00001003049143908602E480838006820F0C7
:100CD00001002C49083908600846006820F010001F
:100CE000086028481038006840F060002549103935
:100CF00008600846006820F0100008600846006898
:100D000040F4C04008600846006820F48050086045
:100D10000846006840F0080008600846006840F493
:100D20000060086017482838006840F080001549C6
:100D30002839086013480838006840F0010011495C
:100D4000083908600846006840F01000086008464E
:100D5000006820F0020008600846006820F02000CB
:100D60000860C7200749091D086006481438006854
:100D700040F0010003491439086070470010024038
:100D800000040048280800400348006840F00100C3
:100D900001490860704700000008004010B5FFF7E7
:100DA00049FF044600BF2046FFF7CBFC6428FAD376
:100DB00010BD70B50446002502E0FFF7EFFF6D1C83
:100DC0000A20B4FBF0F0A842F7D870BD4FF0407095
:100DD000E1EE100A70470000F80D00080000002046
:100DE0003C000000C4010008340E00083C00002054
:100DF000F4060000E0010008832325A0244321001D
:100E00002522000005000000060000000A00000086
:100E10000D0000001100000015000000050000009A
:100E2000060000000A0000000D0000001100000094
:040E300015000000A9
:040000050800018965
:00000001FF
