:020000040800F2
:100000008007002029020008650200086702000836
:10001000690200086B0200086D0200080000000081
:100020000000000000000000000000006F02000857
:100030007102000800000000730200087502000849
:1000400077020008770200087702000877020008AC
:10005000770200087702000877020008770200089C
:10006000770200087702000877020008770200088C
:10007000770200087702000877020008770200087C
:10008000770200087702000877020008770200086C
:10009000770200087702000877020008770200085C
:1000A000770200087702000877020008770200084C
:1000B000770200087702000877020008770200083C
:1000C000770200087702000877020008770200082C
:1000D000770200087702000877020008770200081C
:1000E000770200087702000877020008770200080C
:1000F00077020008770200087702000877020008FC
:1001000077020008770200087702000877020008EB
:1001100077020008770200087702000877020008DB
:1001200077020008770200087702000877020008CB
:1001300077020008770200087702000877020008BB
:1001400077020008770200087702000877020008AB
:10015000770200087702000877020008770200089B
:10016000770200087702000877020008770200088B
:1001700077020008770200087702000800000000FC
:10018000770200087702000800F002F800F03CF85F
:100190000AA090E8000C82448344AAF10107DA45E2
:1001A00001D100F031F8AFF2090EBAE80F0013F0F8
:1001B000010F18BFFB1A43F001031847580E000047
:1001C000780E0000103A24BF78C878C1FAD85207D8
:1001D00024BF30C830C144BF04680C6070470000C1
:1001E0000023002400250026103A28BF78C1FBD840
:1001F000520728BF30C148BF0B6070471FB500F0E1
:1002000004FF1FBD10B510BD00F0A4F81146FFF7A4
:10021000F5FF00F09FFB00F0C2F803B4FFF7F2FF18
:1002200003BC00F0C9F8000016481749174B994263
:100230003CBF50F8042B41F8042BF8D314494FF07D
:1002400000028B4238BF43F8042BFAD3DFF8440096
:10025000016841F470010160BFF34F8FBFF36F8FEE
:100260000D480047FEE7FEE7FEE7FEE7FEE7FEE794
:10027000FEE7FEE7FEE7FEE708480949094A0A4BA0
:1002800070470000341000080000002080000020AB
:100290008007002088ED00E089010008800100202F
:1002A00080070020800300208003002010B5431C3D
:1002B00002E010F8011B71B18107FAD14FF0013251
:1002C00002C88C1A8C4314EAC211F9D0C01A0A066B
:1002D00003D0C01E10BDC01A10BD0A0401D0801E7C
:1002E00010BD0902FCD0401E10BD10B5203AC0F070
:1002F0000B80B1E81850203AA0E81850B1E8185027
:10030000A0E81850BFF4F5AF5FEA027C24BFB1E863
:100310001850A0E8185044BF18C918C0BDE81040D4
:100320005FEA827C24BF51F8043B40F8043B08BFDD
:100330007047D20728BF31F8023B48BF11F8012BA4
:1003400028BF20F8023B48BF00F8012B70477047D8
:1003500070477047754600F02BF8AE4605006946B9
:10036000534620F00700854618B020B5FFF784FFFC
:10037000BDE820404FF000064FF000074FF00008A6
:100380004FF0000B21F00701AC46ACE8C009ACE827
:10039000C009ACE8C009ACE8C0098D46704710B58B
:1003A0000446AFF300802046BDE81040FFF735BF9C
:1003B000004870472001002001491820ABBEFEE72D
:1003C00026000200704700000348406920F4807056
:1003D0000149486170470000001000480348406927
:1003E00040F48070014948617047000000100048E7
:1003F0002348C06C40F012002149C8646FF03000FF
:10040000204908600846006840F0100008601D4858
:100410000830006820F030001A49083108600846AA
:10042000006840F030000860081F006820F00400F9
:10043000091F086013480C30006820F03000114993
:100440000C3108606FF440300F49086008460068BE
:1004500040F4803008600846806820F440308860AE
:100460000846806840F4403088600846406820F4C0
:10047000807048600846C06820F44030C86070470B
:1004800000100240000400480010004803480068C3
:1004900020F004000149086070470000140400487F
:1004A0000348006840F004000149086070470000FC
:1004B000140400485E49096821F007015C4A116094
:1004C0001146096841F0020111605A49096841F476
:1004D0008071584A116000BF5649096801F4806173
:1004E0000029F9D010205349496821F0F851514AA8
:1004F00051601146496841EA00615160114609683E
:1005000021F08071116000BF4A49096801F0007153
:10051000B1F1007FF8D04749C96821F00301454A8D
:10052000D1601146C96841F00201D1601146C96825
:1005300021F4FE4141F4A051D1601146C96821F077
:10054000700141F01001D1601146C96821F0C0610D
:10055000D1601146C96841F08071D16011460968C7
:1005600041F08071116000BF3249096801F00071EB
:100570000029F9D02F49896821F003012D4A9160A3
:100580001146896841F00301916000BF29498968DB
:1005900001F00C010C29F9D12649896821F0F001FC
:1005A000244A91601146896821F4E0619160114606
:1005B000896821F4605191601146096821F08061D9
:1005C000116000BF1B49096801F08061B1F1806FC3
:1005D000F8D01849096921F4FE41164A1161114603
:1005E000096941F4C05111611146096941F40031B2
:1005F00011611146096941F48031116111460968A0
:1006000041F08061116000BF0A49096801F0806112
:100610000029F9D007498831096821F44001054AC9
:10062000C2F888101146096E41F400111166704736
:1006300000200240001002401A48C06C40F0080040
:100640001849C8641848006820F4705016490860BA
:100650000846006840F420500860134820300068C5
:1006600040F0EE601049203108600F480830006803
:1006700040F470500C4908310860081D006820F4EF
:100680007050091D08600846006840F4A0500860DA
:100690000548001D006820F060000349091D08603E
:1006A0007047000000100240000C004800B50D48E3
:1006B000806D40F400300B4988650A488830006836
:1006C00020F00C00C1F888000846D0F8880040F0FF
:1006D0000400C1F88800FFF7AFFF034800F010F8EE
:1006E00000BD00000010024000440040642242436C
:1006F0000723B2FBF3F100BF4A1E111EFCD1704765
:10070000016821F001010160016821F01021016000
:10071000016821F400410160416821F440514160C9
:1007200042F28D01C160016841F00C0101601E4977
:1007300088421BD1016841F020010160016821F06D
:1007400040010160016821F010010160016821F0A1
:1007500080010160016821F480710160016821F06D
:1007600040010160016821F0010101600F498842E8
:1007700009D1016A41F0400101620D49096841F067
:10078000C0010B4A1160016841F00101016000BF26
:10079000C16901F400110029FAD000BFC16901F458
:1007A00080010029FAD07047004C0040004400400E
:1007B00008380140014600BFC86900F02000002849
:1007C000FAD0888CC0B270470146C86900F020009A
:1007D0007047F0B504460E46174600250CE000BFF2
:1007E000E06900F080000028FAD0705D20854FF4A9
:1007F0009670FFF77BFF6D1CBD42F0D300BFE06930
:1008000000F040000028FAD0E06920F04000E061EC
:10081000F0BD18B504462046FFF7CCFF009001223A
:1008200069462046FFF7D5FF9DF8000018BD00B5CA
:10083000014600F039FB02468A4200D2C832501A03
:1008400000BD000000B597B03A483B4908603B48FE
:100850003B49086000203849486039494860012018
:10086000354908723649087202203349C8620320AC
:100870003349C86200203349086048608860C86016
:100880000861012008763048C861D1E9052308696C
:10089000C9698DE80D0003912A480FC800F0B8F926
:1008A00028494861202224480C30FFF71EFD002013
:1008B0002649086048608860C860086101200876A1
:1008C0002348C8610B4610330FCB8DE80F001F483B
:1008D0000FC800F09DF91D494861202218480C30CE
:1008E000FFF703FD00202822134908310A906846CB
:1008F000FFF7FBFC104802210CC80BA800F0B5FA6A
:1009000030220BA90C48FFF7F0FC002028220C49EC
:1009100008310A906846FFF7E8FC094802210CC834
:100920000BA800F0A2FA30220BA90548FFF7DDFC66
:1009300017B000BD0000002080000020180000203B
:10094000B0000020E00000204A000020000100204C
:100950003900002008B5FFF7ADFDFFF7A7FE00F056
:10096000A7FA00F031FBFFF743FDFFF78FFDFFF71C
:100970002BFDFFF767FF334800F06AF832A13148DA
:1009800000F036F900245CE000F08EFA06462D48AF
:10099000FFF71AFF30B3022C08DA2A48FFF739FFB5
:1009A0002146621CD4B20DF801001BE02548FFF778
:1009B00030FF0D280ED19DF8000000F05AF80746D0
:1009C0009DF8010000F055F880464146384600F099
:1009D000E1F800BF00241B4800F03AF81AA11948BA
:1009E00000F006F9194890F8240005281DD2DFE828
:1009F00000F00308170D1200FFF7F0FCFFF746FDAB
:100A000013E0FFF743FDFFF7DFFC0EE0FFF748FDC3
:100A1000FFF7DAFC09E0FFF7E1FCFFF741FD04E036
:100A2000FFF734FDFFF7D0FC00BF00BF00F0FEF879
:100A30003046FFF7FCFE0546C5F1640000F0D8FA29
:100A400000BFA1E7004400403E00000080000020FD
:100A500018B504460D200090012269462046FFF794
:100A6000B8FE0A200090012269462046FFF7B1FE39
:100A700018BD0146432901D0632901D103207047E5
:100A8000502901D0702901D10220F8E74C2901D06A
:100A90006C2901D10020F2E7522901D0722901D13D
:100AA0000120ECE7422901D0622901D10420E6E7C8
:100AB0000620E4E70FB430B597B005460C46042C89
:100AC00008D100201F9000211CA88161C1614161F3
:100AD0008DF89410022C02D101218DF89410032C72
:100AE0000AD19DF89400032806D09DF894000428AC
:100AF00002D000218DF894109DF8940001283FD178
:100B00009DF8780030B1012836D0022836D003286D
:100B100035D132E0B4B91D98052813DA1D98401C70
:100B2000C0B228221EA90A906846FFF7DEFB022108
:100B30000BA8DDE91C2300F098F930220BA91CA8B2
:100B4000FFF7D3FB012C16D11D98002813DD1D984B
:100B5000401EC0B228221EA90A906846FFF7C5FBB6
:100B600002210BA8DDE91C2300F07FF930220BA93C
:100B70001CA8FFF7BAFB02E001E000E000BF00BFE5
:100B800030221CA92846FFF7B0FB17B030BC5DF837
:100B900014FB000030B597B004460D4628221249D8
:100BA0006846FFF7A2FB1048083821460CC80BA87E
:100BB000FFF780FF30220BA90B480838FFF795FBA1
:100BC00028220A496846FFF790FB0848083829465A
:100BD0000CC80BA8FFF76EFF30220BA9034808389A
:100BE000FFF783FB17B030BD88000020B80000205D
:100BF00070B506460C462046FFF758FB05462A46C8
:100C000021460248FFF7E5FD70BD000000440040AA
:100C10000FB4002100E0491C0798405C00F0E000A0
:100C20000028F8D1481C04B07047000000B595B00A
:100C3000242211496846FFF758FB0F480C380EC8AC
:100C400009A800F01DF8302209A90B480C38FFF75D
:100C50004CFB242209496846FFF747FB07480C383C
:100C60000EC809A800F00CF8302209A903480C3876
:100C7000FFF73BFB15B000BD8C000020BC0000203E
:100C80000FB4F0B597B007469DF8980058B1002012
:100C90008DF87C0030221DA93846FFF726FB17B0DF
:100CA000F0BC5DF814FB1DA8806A2099455C05F036
:100CB000E00605F01F041F2C08DD03218DF89810B5
:100CC00030221DA93846FFF710FBE8E706F01F00A9
:100CD000002834D17011072831D2DFE800F09C04DD
:100CE000317850618600052C03DD03218DF89810C2
:100CF00025E09DF87C00022811D028221FA9684613
:100D00000A94FFF7F2FA02210BA8DDE91D2300F097
:100D1000ACF830220BA91DA8FFF7E7FA0FE01DA8D9
:100D20000069002805DD1DA80069401E1DA9086195
:100D300005E000208DF87C002098401C209071E098
:100D40001DA84069012805DD1DA84069401E1DA998
:100D5000486113E01DA84069012808D11DA8406919
:100D6000401E1DA948612098401C209006E01CB937
:100D70002098401C209001E01DA8446152E01DA86D
:100D8000806918B104218DF8981005E02098401C66
:100D90001DA988611DA8C4612098401C209041E0D5
:100DA0001DA8C069002807DD1DA8C069401E1DA937
:100DB000C8611DA8806920901DA8C069002805DCB5
:100DC00000211DA881612098401C20902AE02098D5
:100DD000801C1DA9096A884203DD03218DF8981043
:100DE00002E02098801C20901CE0209801191DA88A
:100DF000006A814200DC1CB903218DF8981009E0DB
:100E00001E98022803DD20982044209002E02098BC
:100E1000401C209006E003208DF87C0002218DF814
:100E2000981000BF00BF30221DA93846FFF75DFAB9
:100E300000BF34E7012806D0022808D003280AD0D2
:100E4000042810D10BE04FF0804251630BE04FF0CB
:100E50008042916307E04FF08042D16303E04FF09E
:100E60008042116400BF00BF70470FB470B50646E2
:100E70000D46129C8DF820500798A04202DD07987D
:100E8000001B01E00798201A0A900794069A52F86E
:100E900024101198FFF7CEFF302206A93046FFF745
:100EA00024FA70BC5DF814FB4FF08040406A704734
:100EB0004448C06C40F001004249C8644FF0904083
:100EC000006820F00C004FF0904108600846006870
:100ED00040F0080008600846006820F03000086014
:100EE0000846006840F0200008600846006A20F0CC
:100EF000F00008620846006A40F0100008620846E8
:100F0000006A20F4706008620846006A40F480704D
:100F100008622C48806D40F001002A4988654FF432
:100F2000FA50010688620006406940F001004861FD
:100F30000846006A20F0100008620846006A20F4A3
:100F4000807008620846806940F4C04088610846A5
:100F5000806920F4805088610846C06940F06000D4
:100F6000C8610846C06920F01000C8610846806961
:100F700040F4006088610846C06940F00800C8611C
:100F80000846006840F0800008600846006A40F0AB
:100F9000100008620846006A40F480700862084643
:100FA000006A20F0200008620846006A20F4007001
:100FB0000862C720C8620846406940F001004861E5
:100FC00070470000001002404FF08040006840F081
:100FD00001004FF080410860704710B5FFF764FFD3
:100FE000044600BF2046FFF722FC6428FAD310BD58
:100FF00070B50446002502E0FFF7EFFF6D1C0A20E4
:10100000B4FBF0F0A842F7D870BD4FF04070E1EEAD
:10101000100A704734100008000000208000000013
:10102000C4010008B4100008800000200007000080
:10103000E001000805000000080000000A000000B0
:101040000D00000011000000150000000500000068
:10105000080000000A0000000D0000001100000060
:10106000150000008523254AA0244321009F252246
:10107000A0002560222300254222200025002342D3
:10108000C220255422C2252000202520238021248F
:10109000A0202240234022235F5F5F2400202122E2
:1010A0002324250025422220258382250025422253
:0410B00020292500CE
:040000050800018965
:00000001FF
